:020000040800F2
:1000000000800020711F0008611E0008631E0008A8
:10001000651E0008671E0008691E00080000000039
:100020000000000000000000000000006B1E00083F
:100030006D1E0008000000006F1E0008711E000801
:10004000C11F0008C11F0008C11F0008C11F000810
:10005000C11F0008C11F0008C11F0008C11F000800
:10006000C11F0008C11F0008C11F0008751E00083D
:10007000C11F0008C11F0008C11F0008C11F0008E0
:10008000C11F000800000000C11F0008C11F0008B8
:10009000C11F0008C11F0008C11F0008C11F0008C0
:1000A000851E0008C11F0008C11F0008C11F0008ED
:1000B0009D1E0008C11F0008AD1E0008C11F0008DA
:1000C000C11F0008C11F0008C11F0008C11F000890
:1000D000C11F0008C11F0008C11F0008C11F000880
:1000E000C11F0008C11F0008C11F0008C11F000870
:1000F000C11F0008C11F0008C11F00080000000048
:1001000000000000C11F000800000000C11F00081F
:10011000C11F000800000000C11F0008C11F000827
:10012000C11F0008C11F0008C11F0008C11F00082F
:10013000C11F00080000000000000000C11F0008EF
:10014000C11F0008C11F00080000000000000000DF
:10015000000000000000000000000000000000009F
:10016000000000000000000000000000C11F0008A7
:10017000C11F000800000000000000000000000097
:1001800000000000C11F0008000000000000000087
:10019000000000000000000000000000000000005F
:1001A0000000000000000000C11F0008C11F00087F
:1001B000C11F0008C11F0008C11F00080000000087
:1001C00000000000C11F0008000000000000000047
:0801D000C11F0008C11F000857
:1002000010B5054C237833B9044B13B10448AFF350
:1002100000800123237010BDC009002000000000F1
:1002200008B5000808B5034B1BB103490348AFF3F9
:10023000008008BD00000000C409002008B50008C7
:1002400081F0004102E000BF83F0004330B54FEA87
:1002500041044FEA430594EA050F08BF90EA020FF4
:100260001FBF54EA000C55EA020C7FEA645C7FEA87
:10027000655C00F0E2804FEA5454D4EB5555B8BFAA
:100280006D420CDD2C4480EA020281EA030382EA1B
:10029000000083EA010180EA020281EA0303362DAD
:1002A00088BF30BD11F0004F4FEA01314FF4801C80
:1002B0004CEA113102D0404261EB410113F0004F92
:1002C0004FEA03334CEA133302D0524263EB430349
:1002D00094EA050F00F0A780A4F10104D5F1200EE7
:1002E0000DDB02FA0EFC22FA05F2801841F1000142
:1002F00003FA0EF2801843FA05F359410EE0A5F116
:1003000020050EF1200E012A03FA0EFC28BF4CF046
:10031000020C43FA05F3C01851EBE37101F00045FC
:1003200007D54FF0000EDCF1000C7EEB00006EEB09
:100330000101B1F5801F1BD3B1F5001F0CD3490893
:100340005FEA30004FEA3C0C04F101044FEA4452EA
:1003500012F5800F80F09A80BCF1004F08BF5FEA71
:10036000500C50F1000041EB045141EA050130BD51
:100370005FEA4C0C404141EB0101013C28BFB1F563
:10038000801FE9D291F0000F04BF01460020B1FAAE
:1003900081F308BF2033A3F10B03B3F120020CDA81
:1003A0000C3208DD02F1140CC2F10C0201FA0CF05F
:1003B00021FA02F10CE002F11402D8BFC2F1200CC4
:1003C00001FA02F120FA0CFCDCBF41EA0C0190407A
:1003D000E41AA2BF01EB0451294330BD6FEA0404C3
:1003E0001F3C1CDA0C340EDC04F11404C4F12002AE
:1003F00020FA04F001FA02F340EA030021FA04F3C0
:1004000045EA030130BDC4F10C04C4F1200220FA16
:1004100002F001FA04F340EA0300294630BD21FA54
:1004200004F0294630BD94F0000F83F4801306BF1A
:1004300081F480110134013D4EE77FEA645C18BF0E
:100440007FEA655C29D094EA050F08BF90EA020FA5
:1004500005D054EA000C04BF1946104630BD91EA9D
:10046000030F1EBF0021002030BD5FEA545C05D1A0
:100470004000494128BF41F0004130BD14F58004DF
:100480003CBF01F5801130BD01F0004545F0FE4153
:1004900041F470014FF0000030BD7FEA645C1ABF88
:1004A000194610467FEA655C1CBF0B46024650EABF
:1004B000013406BF52EA033591EA030F41F40021EB
:1004C00030BD00BF90F0000F04BF0021704730B571
:1004D0004FF4806404F132044FF000054FF0000146
:1004E00050E700BF90F0000F04BF0021704730B507
:1004F0004FF4806404F1320410F0004548BF4042DC
:100500004FF000013EE700BF42004FEAE2014FEA30
:1005100031014FEA02701FBF12F07F4393F07F4F0B
:1005200081F06051704732F07F4208BF704793F00E
:100530007F4F04BF41F40021704730B54FF4607421
:1005400001F0004521F000411CE700BF50EA010224
:1005500008BF704730B54FF000050AE050EA0102CD
:1005600008BF704730B511F0004502D5404261EB3D
:1005700041014FF4806404F132045FEA915C3FF47E
:10058000D8AE4FF003025FEADC0C18BF03325FEA1B
:10059000DC0C18BF033202EBDC02C2F1200300FACC
:1005A00003FC20FA02F001FA03FE40EA0E0021FAF1
:1005B00002F11444BDE600BF70B54FF0FF0C4CF4DF
:1005C000E06C1CEA11541DBF1CEA135594EA0C0F91
:1005D00095EA0C0F00F0DEF82C4481EA030621EACC
:1005E0004C5123EA4C5350EA013518BF52EA033507
:1005F00041F4801143F4801338D0A0FB02CE4FF0B9
:100600000005E1FB02E506F00042E0FB03E54FF0E8
:100610000006E1FB03569CF0000F18BF4EF0010EE0
:10062000A4F1FF04B6F5007F64F5407404D25FEADC
:100630004E0E6D4146EB060642EAC62141EA55518F
:100640004FEAC52040EA5E504FEACE2EB4F1FD0CD1
:1006500088BFBCF5E06F1ED8BEF1004F08BF5FEA4F
:10066000500E50F1000041EB045170BD06F0004601
:1006700046EA010140EA020081EA0301B4EB5C04AE
:10068000C2BFD4EB0C0541EA045170BD41F48011A6
:100690004FF0000E013C00F3AB8014F1360FDEBFCB
:1006A000002001F0004170BDC4F10004203C35DAA7
:1006B0000C341BDC04F11404C4F1200500FA05F32A
:1006C00020FA04F001FA05F240EA020001F00042CB
:1006D00021F0004110EBD37021FA04F642EB060141
:1006E0005EEA430E08BF20EAD37070BDC4F10C046B
:1006F000C4F1200500FA04F320FA05F001FA04F22F
:1007000040EA020001F0004110EBD37041F100011A
:100710005EEA430E08BF20EAD37070BDC4F1200525
:1007200000FA05F24EEA020E20FA04F301FA05F28D
:1007300043EA020321FA04F001F0004121FA04F235
:1007400020EA020000EBD3705EEA430E08BF20EA05
:10075000D37070BD94F0000F0FD101F0004640003F
:1007600041EB010111F4801F08BF013CF7D041EAC1
:10077000060195F0000F18BF704703F000465200C5
:1007800043EB030313F4801F08BF013DF7D043EA96
:100790000603704794EA0C0F0CEA135518BF95EA4C
:1007A0000C0F0CD050EA410618BF52EA4306D1D1D3
:1007B00081EA030101F000414FF0000070BD50EAF2
:1007C000410606BF1046194652EA430619D094EA7C
:1007D0000C0F02D150EA013613D195EA0C0F05D166
:1007E00052EA03361CBF104619460AD181EA0301BA
:1007F00001F0004141F0FE4141F470014FF0000072
:1008000070BD41F0FE4141F4780170BD70B54FF00C
:10081000FF0C4CF4E06C1CEA11541DBF1CEA13558C
:1008200094EA0C0F95EA0C0F00F0A7F8A4EB05046E
:1008300081EA030E52EA03354FEA013100F0888065
:100840004FEA03334FF0805545EA131343EA12632E
:100850004FEA022245EA111545EA10654FEA0026E3
:100860000EF000419D4208BF964244F1FD0404F59C
:10087000407402D25B084FEA3202B61A65EB0305F8
:100880005B084FEA32024FF480104FF4002CB6EBB5
:10089000020E75EB030E22BFB61A754640EA0C0035
:1008A0005B084FEA3202B6EB020E75EB030E22BF75
:1008B000B61A754640EA5C005B084FEA3202B6EBB6
:1008C000020E75EB030E22BFB61A754640EA9C0075
:1008D0005B084FEA3202B6EB020E75EB030E22BF45
:1008E000B61A754640EADC0055EA060E18D04FEA03
:1008F000051545EA16754FEA06164FEAC30343EAA3
:1009000052734FEAC2025FEA1C1CC0D111F4801F6F
:100910000BD141EA00014FF000004FF0004CB6E768
:1009200011F4801F04BF01430020B4F1FD0C88BF07
:10093000BCF5E06F3FF6AFAEB5EB030C04BFB6EB12
:10094000020C5FEA500C50F1000041EB045170BD05
:100950000EF0004E4EEA113114EB5C04C2BFD4EB32
:100960000C0541EA045170BD41F480114FF0000EB6
:10097000013C90E645EA060E8DE60CEA135594EA32
:100980000C0F08BF95EA0C0F3FF43BAF94EA0C0F35
:100990000AD150EA01347FF434AF95EA0C0F7FF4AA
:1009A00025AF104619462CE795EA0C0F06D152EAFE
:1009B00003353FF4FDAE1046194622E750EA4106E2
:1009C00018BF52EA43067FF4C5AE50EA41047FF4F3
:1009D0000DAF52EA43057FF4EBAE12E74FEA410256
:1009E000B2F1E04324BFB3F5001CDCF1FE5C0DD98D
:1009F00001F0004C4FEAC0024CEA5070B2F1004FD7
:100A000040EB830008BF20F00100704711F0804FD9
:100A100021D113F13872BCBF01F00040704741F49E
:100A200080114FEA5252C2F11802C2F1200C10FAA2
:100A30000CF320FA02F018BF40F001004FEAC12386
:100A40004FEAD32303FA0CFC40EA0C0023FA02F32A
:100A50004FEA4303CCE77FEA625307D150EA013300
:100A60001EBF4FF0FE4040F44000704701F00040D0
:100A700040F0FE4040F40000704700BF53B94AB94F
:100A8000002908BF00281CBF4FF0FF314FF0FF3096
:100A900000F074B9ADF1080C6DE904CE00F006F871
:100AA000DDF804E0DDE9022304B070472DE9F047EA
:100AB000089D04468E46002B4DD18A42944669D942
:100AC000B2FA82F252B101FA02F3C2F1200120FA25
:100AD00001F10CFA02FC41EA030E94404FEA1C4873
:100AE000210CBEFBF8F61FFA8CF708FB16E341EA6F
:100AF000034306FB07F199420AD91CEB030306F1F5
:100B0000FF3080F01F81994240F21C81023E634415
:100B10005B1AA4B2B3FBF8F008FB103344EA0344B9
:100B200000FB07F7A7420AD91CEB040400F1FF33CE
:100B300080F00A81A74240F207816444023840EA0B
:100B40000640E41B00261DB1D4400023C5E9004344
:100B50003146BDE8F0878B4209D9002D00F0EF80C7
:100B60000026C5E9000130463146BDE8F087B3FAFA
:100B700083F6002E4AD18B4202D3824200F2F980E2
:100B8000841A61EB030301209E46002DE0D0C5E9E5
:100B9000004EDDE702B9FFDEB2FA82F2002A40F031
:100BA0009280A1EB0C014FEA1C471FFA8CFE012634
:100BB000200CB1FBF7F307FB131140EA01410EFBD8
:100BC00003F0884208D91CEB010103F1FF3802D27F
:100BD000884200F2CB804346091AA4B2B1FBF7F079
:100BE00007FB101144EA01440EFB00FEA64508D99C
:100BF0001CEB040400F1FF3102D2A64500F2BB80D9
:100C00000846A4EB0E0440EA03409CE7C6F1200727
:100C1000B34022FA07FC4CEA030C20FA07F401FA6D
:100C200006F31C43F9404FEA1C4900FA06F3B1FBF6
:100C3000F9F8200C1FFA8CFE09FB181140EA01415B
:100C400008FB0EF0884202FA06F20BD91CEB0101F8
:100C500008F1FF3A80F08880884240F28580A8F150
:100C600002086144091AA4B2B1FBF9F009FB1011A2
:100C700044EA014100FB0EFE8E4508D91CEB010140
:100C800000F1FF346CD28E456AD90238614440EAE3
:100C90000840A0FB0294A1EB0E01A142C846A64663
:100CA00056D353D05DB1B3EB080261EB0E0101FAEC
:100CB00007F722FA06F3F1401F43C5E90071002649
:100CC0003146BDE8F087C2F12003D8400CFA02FC9F
:100CD00021FA03F3914001434FEA1C471FFA8CFEAF
:100CE000B3FBF7F007FB10360B0C43EA064300FB9F
:100CF0000EF69E4204FA02F408D91CEB030300F13D
:100D0000FF382FD29E422DD9023863449B1B89B2F3
:100D1000B3FBF7F607FB163341EA034106FB0EF37C
:100D20008B4208D91CEB010106F1FF3816D28B4229
:100D300014D9023E6144C91A46EA004638E72E46F5
:100D4000284605E70646E3E61846F8E64B45A9D2ED
:100D5000B9EB020864EB0C0E0138A3E74646EAE75C
:100D6000204694E74046D1E7D0467BE7023B61440A
:100D700032E7304609E76444023842E7704700BF73
:100D800001F0FF01102A2BDB10F0070F08D010F83C
:100D9000013B013A8B422DD010F0070F42B3F6D140
:100DA000F0B441EA012141EA014122F007047FF059
:100DB00000070023F0E80256083C85EA010586EAB0
:100DC000010685FA47F5A3FA87F586FA47F6A5FAEC
:100DD00087F68EB9EED1F0BC01F0FF0102F00702F8
:100DE00032B110F8013B013A83EA010313B1F8D1A3
:100DF0000020704701387047002D06BF3546033884
:100E0000073815F0010F07D1013015F4807F02BFBC
:100E1000013015F4C03F0130F0BC0138704700BF0D
:100E2000844641EA000313F003036DD1403A41D3F5
:100E300051F8043B40F8043B51F8043B40F8043BB4
:100E400051F8043B40F8043B51F8043B40F8043BA4
:100E500051F8043B40F8043B51F8043B40F8043B94
:100E600051F8043B40F8043B51F8043B40F8043B84
:100E700051F8043B40F8043B51F8043B40F8043B74
:100E800051F8043B40F8043B51F8043B40F8043B64
:100E900051F8043B40F8043B51F8043B40F8043B54
:100EA00051F8043B40F8043B51F8043B40F8043B44
:100EB000403ABDD2303211D351F8043B40F8043BE4
:100EC00051F8043B40F8043B51F8043B40F8043B24
:100ED00051F8043B40F8043B103AEDD20C3205D3F4
:100EE00051F8043B40F8043B043AF9D2043208D0EC
:100EF000D2071CBF11F8013B00F8013B01D30B885E
:100F000003806046704700BF082A13D38B078DD03B
:100F100010F003038AD0C3F10403D21ADB071CBF0D
:100F200011F8013B00F8013B80D331F8023B20F877
:100F3000023B7BE7043AD9D3013A11F8013B00F8B0
:100F4000013BF9D20B7803704B7843708B78837038
:100F50006046704700000000000000000000000034
:100F60000000000000000000000000000000000081
:100F70000000000000000000000000000000000071
:100F800090F800F06DE9024520F007016FF0000CC9
:100F900010F0070491F820F040F049804FF0000471
:100FA0006FF00700D1E9002391F840F000F108004C
:100FB00082FA4CF2A4FA8CF283FA4CF3A2FA8CF384
:100FC0004BBBD1E9022382FA4CF200F10800A4FAEB
:100FD0008CF283FA4CF3A2FA8CF3E3B9D1E904233F
:100FE00082FA4CF200F10800A4FA8CF283FA4CF376
:100FF000A2FA8CF37BB9D1E9062301F1200182FA30
:101000004CF200F10800A4FA8CF283FA4CF3A2FA35
:101010008CF3002BC6D0002A04BF04301A4612BA43
:10102000B2FA82F2FDE8024500EBD2007047D1E946
:10103000002304F00305C4F100004FEAC50514F0D5
:10104000040F91F840F00CFA05F562EA05021CBFA6
:1010500063EA050362464FF00004A9E74FF0FF3C46
:1010600006E000BF4FF0010C02E000BF4FF0010CA2
:101070004DF804CD4FEA410C7FEA6C5C4FEA430C1B
:1010800018BF7FEA6C5C1BD001B050EA410C0CBF6A
:1010900052EA430C91EA030F02BF90EA020F0020CC
:1010A000704710F1000F91EA030F58BF994208BF33
:1010B00090422CBFD8176FEAE37040F001007047F0
:1010C0004FEA410C7FEA6C5C02D150EA013C07D147
:1010D0004FEA430C7FEA6C5CD6D152EA033CD3D092
:1010E0005DF8040B704700BF8446104662468C468C
:1010F0001946634600E000BF01B5FFF7B7FF0028BF
:1011000048BF10F1000F01BD4DF808EDFFF7F4FFE7
:101110000CBF012000205DF808FB00BF4DF808ED72
:10112000FFF7EAFF34BF012000205DF808FB00BF95
:101130004DF808EDFFF7E0FF94BF012000205DF8B7
:1011400008FB00BF4DF808EDFFF7CEFF94BF01206C
:1011500000205DF808FB00BF4DF808EDFFF7C4FF65
:1011600034BF012000205DF808FB00BF4FEA410CAE
:101170007FEA6C5C02D150EA013C0AD14FEA430C91
:101180007FEA6C5C02D152EA033C02D14FF00000CE
:1011900070474FF0010070474FEA410212F500120C
:1011A00015D211D56FF47873B3EB625212D94FEAAE
:1011B000C12343F0004343EA505311F0004F23FA98
:1011C00002F018BF404270474FF00000704750EAED
:1011D000013005D111F0004008BF6FF000407047AA
:1011E0004FF00000704700BF70EE600A384BC3ED4F
:1011F000000A384BD3ED007AF5EEC07AF1EE10FA22
:1012000058DD9FED357AF4EEC77AF1EE10FACCBFD7
:1012100001230023002B57D0304B00221A602F4BA4
:1012200093ED006A2E4BD3ED007A76EE277A67EEC7
:10123000817AB6EE007A67EE877A2A4A92ED000A42
:1012400077EE807AC2ED007AB0EE087A20EE877AE7
:10125000254AD2ED005AF1EE006A65EEA66A37EE35
:10126000667A2249D1ED006A37EE267A31EE011A0C
:10127000C7EE016A1E48C0ED006AB2EE010A20EE18
:10128000800A9FED1C7A67EE877A70EE277A9FEDD1
:101290001A0A26EE800A37EE800A184880ED000A06
:1012A000C1ED005AC2ED000A83ED006A094B83EDDF
:1012B000000A70479FED127AF4EEC77AF1EE10FA49
:1012C0004CBF01230023A5E7044BC3ED000AA6E7AA
:1012D000E4090020FC09002000806D44DC090020A6
:1012E000E0090020F4090020EC090020F0090020AA
:1012F000E8090020000000009A99193EF809002032
:1013000000806DC470EE600A364BC3ED000A364BA8
:10131000D3ED007AF5EEC07AF1EE10FA54DD9FEDD0
:10132000337AF4EEC77AF1EE10FACCBF0123002332
:10133000002B53D02E4B00221A602D4B93ED006AE8
:101340002C4BD3ED007A76EE277A67EE817AB6EEF3
:10135000007A67EE877A284A92ED000A77EE807A63
:10136000C2ED007AB0EE087A20EE877A234AD2EDF9
:10137000005AF1EE006A65EEA66A77EE666A2049C9
:1013800091ED005A76EE856A31EE011A86EE810AF9
:101390001C4880ED000ADFED1C6A67EEA67A77EE46
:1013A000277A9FED1A7A20EE070A37EE800A18484E
:1013B00080ED000AC1ED005AC2ED000A83ED006A1B
:1013C000094B83ED000A70479FED127AF4EEC77A5D
:1013D000F1EE10FA4CBF01230023A9E7044BC3ED43
:1013E000000AAAE70C0A0020200A002000806D44B1
:1013F000000A0020040A0020180A0020100A002019
:10140000140A0020080A002000000000CDCC4C3D4A
:101410001C0A002000806DC470B588B000240394BD
:101420000494059406940794204BDA6C42F0010270
:10143000DA64DA6C02F001020192019ADA6C42F08D
:101440000202DA64DB6C03F002030293029B224681
:101450004FF400714FF0904001F06FFE144D2246A2
:101460004FF48071284601F068FE02230393049430
:10147000059403A94FF0904001F07EFD4FF40073F6
:101480000393012604960594069403A94FF0904017
:1014900001F072FD4FF48073039304960594069453
:1014A00003A9284601F068FD08B070BD0010024095
:1014B0000004004800B583B00E4B9A6C42F0040261
:1014C0009A649A6C02F004020092009A9A6C42F0BC
:1014D00001029A649B6C03F001030193019B0022BB
:1014E00011460B2001F090FB0B2001F0C5FB03B06F
:1014F0005DF804FB0010024010B51446052392B2BB
:10150000024803F022FD204610BD00BFE00B002082
:10151000A0F5487007EE900AF8EEE77A9FED047A9E
:1015200087EE870ADFED037A20EE270A704700BFB7
:1015300000803B459A99993E2DE9F0412DED028BB3
:10154000044602687C4B9A420CD02368B3F1804F6A
:101550000BD02268794B9A4200F08680BDEC028B5A
:10156000BDE8F08100F03CFDEFE7754B93ED007AAC
:10157000F5EE007AB4EEE77AF1EE10FA3ED50022ED
:101580004FF480716F4801F0D8FD6F4B93ED000A66
:101590006E4BD3ED000A9FED6E1AFFF725FE6D4BE3
:1015A000D3ED007A77EE807AC3ED007A694B93ED44
:1015B000007ADFED697AB4EEE77AF1EE10FA33DD06
:1015C000C3ED007A634BD3ED007AF5EEC07AF1EE0D
:1015D00010FA36D95F4BD3ED007AFDEEE77A17EEBD
:1015E000903A5E4A1268C3F57A73536301224FF44E
:1015F00000714FF0904001F0A0FDAAE701224FF4E6
:101600008071504801F099FD554B1B8800EE903ACF
:101610009FED4F1AF8EE600A9FED520AFFF772FE37
:101620004C4B83ED000AC1E74A4B93ED007ADFEDA6
:101630004E7AB4EEE77AF1EE10FAC3D5C3ED007A34
:10164000C0E7D3ED007AFDEEE77A17EE903A434A11
:10165000126803F57A73536300224FF400714FF060
:10166000904001F06AFD74E7354C94ED008ADFED9F
:101670003F7A28EE278A3A4B1888FFF749FFDFEDBB
:101680003C7A20EE270A38EE008A84ED008ADFF8E3
:10169000BC8098ED007ADFED377A67EE277A17EE97
:1016A000900AFEF731FF06460F4694ED007A324D60
:1016B000D5ED007A77EE677A17EE900AFEF724FFF1
:1016C00019A3D3E90023FFF7A1F819A3D3E9002355
:1016D000FEF772FF02460B4630463946FEF7B6FD6E
:1016E000FFF77CF9C8F8000023682B60234BD3ED8B
:1016F000007A9FED177A77EE877AC3ED007A0221A0
:101700004FF0904001F012FD01287FF427AFD8F888
:101710000000FEF7F9FE02460B46194803F0FEFDF5
:101720001CE700BFAFF30080FCA9F1D24D62503F2F
:10173000000000403333D33F004001400008004028
:10174000700C00200004004800000020280A00203F
:101750006F12833A2C0A002000807244FC0A002099
:10176000240A002000806D45008072C49A99593F78
:101770009899193E3333333F740C0020780C0020C5
:1017800020B5000872B6FEE710B58CB000240994AD
:101790000A940B942022214601A803F06DFD1E48F7
:1017A0004FF0A04303604FF4003343608460C46093
:1017B0000461446104238361047701234377036256
:1017C00080F82440C462046380F83830C46380F831
:1017D000404000F02BFCC8B90023099309A90E482A
:1017E00001F076F9A0B90D4B01930623029305236E
:1017F00003937F230493042305930023069301A9F5
:10180000054800F08DFD28B90CB010BDFFF7BAFFF8
:10181000FFF7B8FFFFF7B6FF300A002002003004E0
:1018200010B59CB00024189419941A941B94159424
:10183000169417940E940F94109411941294139478
:1018400014943422214601A803F016FD2E482F4B94
:10185000036007234360846040F2E733C3600461A0
:101860004461846102F0DAFD002841D14FF48053D5
:10187000189318A9244802F019FF00283AD12248E9
:1018800002F0FCFD002837D100231593169317931F
:1018900015A91D4803F04AF800282FD160230E93A4
:1018A00000220F92109211921292139214920EA98A
:1018B000154802F059FE18BB0023019302930393CD
:1018C000049305934FF400520692079308930993EB
:1018D0004FF000720A920B930C930D9301A90A48E2
:1018E00003F06EF870B9084800F014FA1CB010BD8F
:1018F000FFF748FFFFF746FFFFF744FFFFF742FF00
:10190000FFF740FFFFF73EFFFC0A0020002C0140DC
:1019100000B589B0002304930593069307930193C0
:101920000293039313484FF0804202604F224260BB
:10193000836040F2E732C2600361836102F06EFDB2
:1019400090B94FF48053049304A90A4802F0AEFE04
:1019500060B900230193039301A9064802F0E6FF52
:1019600030B909B05DF804FBFFF70CFFFFF70AFF81
:10197000FFF708FF480B002000B589B0002304934F
:101980000593069307930193029303931348144A14
:1019900002604F224260836040F2E732C26003611E
:1019A000836102F03BFD90B94FF48053049304A986
:1019B0000A4802F07BFE60B900230193039301A95A
:1019C000064802F0B3FF30B909B05DF804FBFFF739
:1019D000D9FEFFF7D7FEFFF7D5FE00BF940B00201E
:1019E0000008004008B51548154B03604FF4E1337B
:1019F000436000238360C36003610C224261836102
:101A0000C36103624362836203F048FB70B9002143
:101A10000A4803F0BCFB58B90021084803F0DCFB7E
:101A200040B9064803F094FB30B908BDFFF7AAFEA1
:101A3000FFF7A8FEFFF7A6FEFFF7A4FEE00B0020CD
:101A40000044004000B5A5B03822002116A803F0DC
:101A500013FC0021119112911391149115914422BC
:101A6000684603F009FC4FF4007001F06BFB0223A1
:101A700016934FF48072199240221A921D931E936E
:101A800001221F920A22209221932293239316A8C7
:101A900001F012FCD8B90F231193032312930023F2
:101AA000139314931593022111A801F0BDFE80B980
:101AB00048F202030093002302934FF000530F9368
:101AC000684601F0F5FF30B925B05DF804FBFFF77B
:101AD00059FEFFF757FEFFF755FE000008B5274BEC
:101AE0001B680021986803F02DFC00F06AFAFFF7EC
:101AF000A9FFFFF791FCFFF7DDFCFFF745FEFFF7BD
:101B00008FFEFFF705FFFFF737FFFFF76BFF1C4C5A
:101B10000021204602F05EFE1A4802F0B3FA1A488D
:101B200002F0B0FA194D7F21284600F083FF012210
:101B30001749284600F0B2FE01224FF48071154883
:101B400001F0FBFA236840F2E7325A6302E00D48E5
:101B500002F098FA052000F055FA02214FF090406B
:101B600001F0E4FA0128F2D0064802F0CDFA044B65
:101B70001B6840F2E7325A63ECE700BF1000002018
:101B8000FC0A0020480B0020940B0020300A0020A3
:101B9000240A00200004004800B583B00B4B1A6EE5
:101BA00042F001021A661A6E02F001020092009AD7
:101BB0009A6D42F080529A659B6D03F080530193B9
:101BC000019B01F045FB03B05DF804FB00100240EF
:101BD00010B588B0002303930493059306930793ED
:101BE0000368B3F1A04F01D008B010BD044603F163
:101BF000704303F50433DA6C42F40052DA64DA6CB1
:101C000002F400520192019ADA6C42F00102DA64A5
:101C1000DB6C03F001030293029B01230393032374
:101C2000049303A94FF0904001F0A6F90F48104B20
:101C300003600523436000238360C3608023036146
:101C40004FF4807343614FF4806383612023C36149
:101C50004FF48053036201F077F818B9034B6365C2
:101C60009C62C1E7FFF78EFDF8E700BF9C0A0020E9
:101C70000800024000B585B00368234A934208D0AB
:101C8000B3F1804F18D0214A934229D005B05DF8B6
:101C900004FB1F4B1A6E42F400621A661B6E03F4BB
:101CA00000630193019B00220F21182000F0ACFF7C
:101CB000182000F0E1FFE9E703F504339A6D42F0E4
:101CC00001029A659B6D03F001030293029B0022BF
:101CD00011461C2000F098FF1C2000F0CDFFD5E736
:101CE0000B4B9A6D42F004029A659B6D03F004035E
:101CF0000393039B002211461E2000F085FF1E2047
:101D000000F0BAFFC2E700BF002C0140000800400D
:101D10000010024000B587B00023019302930393A3
:101D20000493059302680F4B9A4202D007B05DF806
:101D300004FB03F56443DA6C42F00102DA64DB6C05
:101D400003F001030093009B4FF48073019302237F
:101D500002930623059301A94FF0904001F00CF97E
:101D6000E4E700BF002C014000B589B000230393D5
:101D700004930593069307930268134B9A4202D08B
:101D800009B05DF804FB03F5E6339A6D42F40032C6
:101D90009A659A6D02F400320192019ADA6C42F06F
:101DA0000102DA64DB6C03F001030293029B0C2353
:101DB0000393022304930723079303A94FF0904052
:101DC00001F0DAF8DCE700BF0044004030B589B02C
:101DD00004461E4B1A6E42F480321A661B6E03F4E0
:101DE00080330193019B02A903A801F043FE01F097
:101DF0002FFE03461648A0FB03239B0C013B15480E
:101E0000154A026040F2E732C2604360002303617A
:101E1000836002F003FB054610B1284609B030BDCF
:101E20000C4802F02FF905460028F6D1182000F0E2
:101E300023FF0F2C01D90125EFE7002221461820AE
:101E400000F0E2FE054B1C60E7E700BF0010024017
:101E500083DE1B437C0C0020004001400C0000206E
:101E6000FEE7FEE7FEE7FEE7FEE7704770477047D4
:101E70007047000008B5024801F01CF808BD00BF1B
:101E80009C0A002008B5034802F05CF9024802F001
:101E900059F908BDFC0A00207C0C002008B5024856
:101EA00002F050F908BD00BF480B002008B50248F9
:101EB00002F048F908BD00BF940B002001207047D4
:101EC00008B503F0AFF9162303604FF0FF3008BDEB
:101ED00008B54FF0FF31FFF7F3FFFEE770B50C4692
:101EE0001646002506E0AFF30080214601F8010BFD
:101EF00001350C46B542F6DB304670BD4FF0FF3081
:101F000070474FF400534B6000207047012070472A
:101F10000020704710B503460C4A0D490D48006873
:101F200040B10C4800680344521A934206D8094A4B
:101F3000136010BD0748084C0460F2E703F072F923
:101F40000C2303604FF0FF30F3E700BF0080002058
:101F500000040000C80C0020180D0020034AD2F82D
:101F6000883043F47003C2F88830704700ED00E019
:101F70000D4885460D480E490E4A002302E0D4580C
:101F8000C4500433C4188C42F9D30B4A0B4C0023C1
:101F900001E013600432A242FBD3FFF7DFFF03F03E
:101FA00047F9FFF79BFDFEE70080002000000020BE
:101FB000C00900207CB90008C0090020180D0020CD
:101FC000FEE710B5032000F00DFE0F20FFF7FEFE28
:101FD00010B10124204610BD0446FFF7DDFDF9E7EE
:101FE000034A1368034909680B441360704700BF34
:101FF000CC0C002008000020014B1868704700BF7F
:10200000CC0C002038B50446FFF7F6FF0546B4F1C6
:10201000FF3F02D0044B1B681C44FFF7EDFF401B41
:10202000A042FAD338BD00BF0800002030B583B00D
:1020300000230193002800F00D810446C36D13B303
:1020400023689A6812F0005F05D09A6822F0204257
:1020500022F03F029A602268936813F0805F1FD1DC
:10206000936823F0104323F03F0343F080539360C1
:10207000794B1B689B09794AA2FB03239B09013317
:102080005B00019309E0FFF7A3FD0023236684F8BA
:102090005830D5E7019B013B0193019B002BF9D1FF
:1020A0002268936813F0805F40F09C80E36D43F0FA
:1020B0001003E365236E43F0010323660120936858
:1020C00013F0040300D00123E16D11F0100F40F074
:1020D000BA80002B40F0B780E36D23F4817343F0A6
:1020E0000203E365936813F0010F15D14FF0A0438D
:1020F0009B6813F0010300D00123594A926812F043
:10210000010200D00122134306D1636855498A6851
:1021100022F47C1213438B60627FE36B43EA423309
:10212000E2681343A268134394F8242043EA02436D
:10213000012A59D0E26A22B102F47872216B0A4373
:1021400013432168CD68484A2A401343CB60226874
:10215000136923F04063616B0B43136121688B6843
:1021600013F0040300D001238A6812F0080200D0A3
:10217000012243BB3ABB227F94F838305B0043EA2C
:102180008232CB6823F4804323F002031343CB60F5
:10219000236973B32268136943F48033136122689F
:1021A000D2F8C03023F47F5323F03F0321690B435F
:1021B000C2F8C03094F84030012B29D0226813694E
:1021C00023F0010313616369012B33D02268136B81
:1021D00023F00F031363E36D23F0030343F00103C4
:1021E000E36535E000206AE7A26A013A43EA424328
:1021F000A0E72268136923F4803313612268D2F8C0
:10220000C03023F47F5323F03F03C2F8C030D1E73E
:1022100021680B6923F4FF6323F00403626CA56C4F
:102220002A43E56C2A43256D2A43134343F00103F7
:102230000B61C8E721680B6B23F00F03226A013A98
:1022400013430B63C7E7E36D43F01003E36501201D
:1022500003B030BD0120FBE704000020632D3E05E4
:1022600000010050000300500740F0FF7047704726
:1022700008B5806AFFF7FBFF08BD704708B5034645
:10228000806AC26D12F0500F30D1C36D43F40073F9
:10229000C36503681A6812F0080F14D0DA6812F4E4
:1022A000406F20D1DB6813F4005F1CD1C36D23F4B1
:1022B0008073C365C36D13F4805F14D1C36D43F0A5
:1022C0000103C3650FE0DB6813F0020F0BD1C36D90
:1022D00023F48073C365C36D13F4805F03D1C36DB2
:1022E00043F00103C365FFF7C1FF08BDC26D12F0E3
:1022F000100F04D1426D526B18469047F5E7FFF777
:10230000BCFFF2E708B5806AC36D43F04003C365C4
:10231000036E43F004030366FFF7AFFF08BD000040
:10232000F0B583B00022019290F85820012A00F005
:102330005E820346012280F858200568A86810F0E4
:10234000040F09D0DA6D42F02002DA650120002284
:1023500083F8582003B0F0BD4C683035220A920053
:1023600002F00C02A85804F01F0E1F2404FA0EF409
:1023700020EA04000C68C4F3846C0CFA0EFC40EAFA
:102380000C00A8501868826812F0040200D00122E4
:10239000846814F0080400D00124002A50D1002CD5
:1023A0004ED18D68B5F1004F00F082800F68143077
:1023B0007A0E920002F004028658C7F3045E4FF0D2
:1023C000070C0CFA0EFC26EA0C0C05FA0EF54CEA8A
:1023D000050585501868426922F0004242614D6946
:1023E0001868C268C2F3C102520005FA02F20E690F
:1023F000042E75D0603050F82670A84D3D400F680F
:1024000007F0F8473A43154345F0004540F8265099
:102410001A680E698869603252F8265025F0807576
:10242000284342F826001A680D69087F012854D015
:10243000603252F8250020F00070044342F8254035
:102440001868826812F0010F17D10A68CD68D0F8B9
:10245000B040C2F3120C24EA0C0405F0180C904DA5
:1024600025FA0CF52A40C2F312022243C0F8B0202C
:10247000C8688C4A904200F09B800A688A490A42E8
:1024800000F0AD818949896801F0E070884CA24272
:1024900000F05C81874CA24200F05881864CA24239
:1024A00000F07A81854CA24200F0888100204EE73E
:1024B0000D6814306A0E920002F004028658C5F3CB
:1024C0000455072707FA05F526EA0505855018681B
:1024D000426942F00042426181E74FF00074A7E791
:1024E000026E046EC4F384640A68C2F3120585BBED
:1024F000C2F38462944234D01C68626E606EC0F392
:1025000084600A68C2F3120585BBC2F384629042FC
:1025100034D01C68A26EA06EC0F384600A68C2F357
:10252000120585BBC2F38462904234D01C68E26E0F
:10253000E06EC0F384600A68C2F3120585BBC2F383
:10254000846290427FF47CAFE26E22F00042E26649
:1025500076E792FAA2F212B1B2FA82F2CAE7202228
:10256000C8E7026E22F000420266C5E792FAA2F2C4
:1025700012B1B2FA82F2CAE72022C8E7626E22F0F4
:1025800000426266C5E792FAA2F212B1B2FA82F292
:10259000CAE72022C8E7A26E22F00042A266C5E781
:1025A00092FAA2F212B1B2FA82F2CAE72022C8E786
:1025B0001C680A68C2F31205002D38D1900E013054
:1025C00000F01F0009288CBF00200120002877D0D0
:1025D000002D3BD1900E0130800600F0F840002D18
:1025E00040D1960E013606F01F070126BE4030434B
:1025F000002D45D1920E013202F01F0202EB420281
:1026000012050243886804F11406550EAD0005F06A
:1026100004057459C2F304524FF0070C0CFA02FC83
:1026200024EA0C0C90404CEA0000705125E792FA25
:10263000A2F048B1B0FA80F0013000F01F00092884
:102640008CBF00200120C1E72020F5E792FAA2F01C
:1026500030B1B0FA80F00130800600F0F840BEE7FB
:102660002020F8E792FAA2F646B1B6FA86F60136CD
:1026700006F01F06012707FA06F6B8E72026F6E758
:1026800092FAA2F242B1B2FA82F2013202F01F02D1
:1026900002EB42021205B4E72022F6E700F0FF0346
:1026A000FFFF070000007F4000000880000300508B
:1026B000000021C31000C090000052C7000084CB6E
:1026C000CDB9900E0130800600F0F840FDB9960EAD
:1026D000013606F01F070126BE4030432DBB920E87
:1026E000013202F01F0202EB42021E3A120542F0D2
:1026F0000072024386E792FAA2F030B1B0FA80F09D
:102700000130800600F0F840E0E72020F8E792FA78
:10271000A2F646B1B6FA86F6013606F01F06012784
:1027200007FA06F6D9E72026F6E792FAA2F25AB19E
:10273000B2FA82F2013202F01F0202EB42021E3AAA
:10274000120542F00072D4E72022F3E711F4000FE3
:102750007FF4A4AE1A68B2F1A04F01D00020F6E5D4
:1027600040F4000023498A6822F0E0721043886038
:10277000214A126892092149A1FB021292090132F1
:1027800002EB420292000192019A1AB1019A013AB7
:102790000192F9E70020DAE511F0807F7FF482AE44
:1027A0001968174A91421CD040F0807011498A681C
:1027B00022F0E072104388600020C8E511F4800F19
:1027C00011D119680E4A91420FD040F48002094895
:1027D000816821F0E0710A4382600020B7E50020A3
:1027E000B5E50020B3E50020B1E50020AFE502200B
:1027F000B0E500BF0003005004000020632D3E053B
:102800000001005038B503689A6812F0010F40D1FA
:1028100004469968204A114209D0C36D43F0100361
:10282000C365036E43F001030366012032E09A683A
:1028300022F0004222F03F0242F001029A60FFF7CC
:10284000DBFB054623681A6812F0010F1FD19A6856
:1028500012F0010F07D19A6822F0004222F03F02E5
:1028600042F001029A60FFF7C7FB431B022BE9D934
:1028700023681B6813F0010FE4D1E36D43F01003EC
:10288000E365236E43F001032366012002E000208C
:1028900000E0002038BD00BF3F000080F8B50446CE
:1028A0003A4B9D680068806810F0040F69D10E46AD
:1028B000174605F01F0594F85830012B63D001230B
:1028C00084F8583045B1052D06D0092D04D00023D9
:1028D00084F85830012055E02046FFF793FF002888
:1028E0004BD1E36D23F4706323F0010343F4807351
:1028F000E3652368264A934239D01A46934200D0B2
:102900001DB9E36D23F48013E365E36D13F4805F79
:1029100030D0236E23F006032366636D1D4ADA620E
:10292000636D1D4A1A63636D1C4A5A6323681C2237
:102930001A60002384F858302268536843F010036B
:1029400053602268D36843F00103D36021683B469B
:1029500032464031606D00F063FA2268936823F0DC
:10296000004323F03F0343F0040393600AE04FF079
:10297000A042C3E700232366CFE7002384F8583042
:1029800000E00220F8BD0220FCE700BF0003005079
:10299000000100507D220008712200080523000874
:1029A00038B504460268936813F0020300D001238F
:1029B000916811F0010F39D0002B39D1936803F0E1
:1029C0000D03012B09D0E36D43F01003E365236E83
:1029D00043F001032366012029E0936823F00043BC
:1029E00023F03F0343F002039360236803221A603D
:1029F000FFF702FB054623689B6813F0010F13D015
:102A0000FFF7FAFA401B0228F5D923689B6813F0F8
:102A1000010FF0D0E36D43F01003E365236E43F044
:102A200001032366012002E0002000E0002038BD01
:102A30000020FCE730B583B00023019390F85830B4
:102A4000012B41D004460D46012380F85830FFF792
:102A5000A7FF80BBE36D23F4885323F0020343F008
:102A60000203E3652268936823F0404323F03F03A9
:102A700005F080452B4343F00043936023689B6837
:102A8000002B06DBE36D23F0030343F00103E36552
:102A900015E0019B01330193019A0C4B9A42EDD949
:102AA000E36D23F0120343F01003E365002384F881
:102AB0005830012006E0E36D43F01003E365002386
:102AC00084F8583003B030BD0220FBE701DE04007B
:102AD00090F85820012A7FD010B49DB003460122FF
:102AE00080F858200022189219920068B0F1A04F87
:102AF00039D000220192019A002A37D0926812F050
:102B0000040200D00122806810F0040F54D1002A82
:102B100052D10A68002A32D0304CA26822F46042B6
:102B2000486893F838C040EA4C300243A2604FF046
:102B3000A042926812F0010200D001222848806869
:102B400010F0010000D00120024341D1234CA268C3
:102B500022F4716222F00F020868896801430A4377
:102B6000A26000202DE01E4A0192C4E7DA6D42F017
:102B70002002DA65002283F85820012024E017495A
:102B80008A6822F460428A604FF0A042926812F094
:102B9000010200D001221249896811F0010100D020
:102BA00001210A4316D10D498A6822F4716222F08C
:102BB0000F028A60002004E0DA6D42F02002DA653C
:102BC0000120002283F858201DB05DF8044B7047A7
:102BD0000020F6E70020F4E70220704700030050D1
:102BE00000010050074AD36823F4E0631B041B0C68
:102BF000000200F4E060034343F0BF6343F400339A
:102C0000D360704700ED00E000B5194BDB68C3F3FB
:102C10000223C3F1070CBCF1040F28BF4FF0040CD2
:102C200003F1040EBEF1060F18D9033B4FF0FF3E2F
:102C30000EFA0CFC21EA0C0199400EFA03F322EA89
:102C40000303194300280BDB0901C9B200F16040FE
:102C500000F5614080F800135DF804FB0023E5E710
:102C600000F00F000901C9B2024B1954F4E700BF8C
:102C700000ED00E014ED00E0002807DB00F01F028B
:102C8000400901239340024A42F82030704700BFB8
:102C900000E100E030B4C46C056D6560446D14B1B2
:102CA000846DC56D6560446C04F01F0C012404FA4A
:102CB0000CF4056C6C60046863608368102B05D0AD
:102CC000036899600368DA6030BC704703689A60F3
:102CD0000368D960F8E7000003680C4A934213D8F0
:102CE0000B49DBB2083B0B4AA2FB0323426C22F0E8
:102CF00003020A448264084AC264C3F30413012233
:102D000002FA03F3036570470449EAE70704024047
:102D100000080240CDCCCCCC800802402008024004
:102D20000379074A1A4492004265064A8265013BCC
:102D300003F01F03012202FA03F3C365704700BFCB
:102D40003F8200104009024000285BD010B50446C5
:102D500001682D4B99423DD82C4B0B442C4AA2FBC9
:102D600003231B099B0043642A4B0364022384F85A
:102D700025300A6822F4FF4222F07002A368E0685E
:102D800003432069034360690343A0690343E06987
:102D90000343206A034313430B602046FFF79CFF65
:102DA000A368B3F5804F20D0A36C22791A60E36C3E
:102DB000226D5A606368013B032B19D900236365B8
:102DC000A365E3650020E063012384F8253084F8DF
:102DD000240010BD104B0B440D4AA2FB03231B091A
:102DE0009B0043640D4B0364C0E700236360DBE793
:102DF0002046FFF795FF636D00221A60A36DE26D18
:102E00005A60DFE70120704707040240F8FFFDBF6A
:102E1000CDCCCCCC00000240F8FBFDBF000402404A
:102E200038B5044690F82400012841D0012084F8E8
:102E3000240094F82500C0B2012804D0002384F8AF
:102E40002430022038BD022084F825000020E063F1
:102E50002568286820F0010028602046FFF71AFF47
:102E6000236BD3B12268136843F00E031360A36C85
:102E70001A6812F4803F03D01A6842F480721A6014
:102E8000636D1BB11A6842F480721A60226813687D
:102E900043F0010313600020D4E72268136823F095
:102EA000040313602268136843F00A031360DEE72B
:102EB0000220C7E738B5036C196804682568436CBD
:102EC00003F01F0304229A400A4215D015F0040FA4
:102ED00012D0236813F0200F03D1236823F00403DA
:102EE0002360436C03F01F02016C042393404B608A
:102EF000036B03B1984738BD02229A400A421CD0A6
:102F000015F0020F19D0236813F0200F06D12368A3
:102F100023F00A032360012380F82530436C03F07B
:102F20001F02016C022393404B60002380F8243081
:102F3000C36A002BDFD09847DDE7082202FA03F3CB
:102F40000B42D8D015F0080FD5D0236823F00E031C
:102F50002360436C03F01F03016C012202FA03F3A8
:102F60004B60C26380F82520002380F82430436B37
:102F7000002BC0D09847BEE7F0B583B0002336E001
:102F8000052400E00024B4403C430235634E46F87B
:102F90002540634C2568D44325EA02064F6817F4A0
:102FA000803F01D042EA05065D4D2E606D6804EA5F
:102FB00005064F6817F4003F01D042EA0506584D58
:102FC0006E60AD6804EA05064F6817F4801F01D0F3
:102FD00042EA0506524DAE60ED682C404E6816F48C
:102FE000001F01D042EA05044D4AD46001330A684B
:102FF00032FA03F400F08F804FF0010C0CFA03FC5E
:103000001CEA0202F2D04C68651E012D03D9112C76
:1030100001D0122C13D185685E000324B44025EA48
:103020000405CC68B4402C438460446824EA0C0C4A
:103030004C68C4F300149C4044EA0C044460C66825
:103040004FEA430C032505FA0CF5EC4326EA050E7E
:103050008D6805FA0CF545EA0E05C5604D68022D30
:1030600001D0122D12D1DE08083650F8267003F078
:1030700007054FEA850E0F2505FA0EF527EA050725
:103080000D6905FA0EF53D4340F8265005682540C8
:103090004C6804F0030404FA0CF42C4304604C68FC
:1030A00014F0805FA2D01F4C256E45F00105256607
:1030B000246E04F001040194019C9D08AE1C174C81
:1030C00054F8267003F00304A6000F24B44027EA46
:1030D0000407B0F1904F3FF455AF134CA04212D00B
:1030E00004F58064A04210D004F58064A0420ED0A4
:1030F00004F58064A0420CD004F58064A0423FF443
:103100003FAF06243FE701243DE702243BE70324C9
:1031100039E7042437E703B0F0BD00BF00000140E9
:1031200000040140001002400004004803691942F5
:1031300001D001207047002070470AB181617047BB
:1031400081627047002836D13E4B1B6803F4C06390
:10315000B3F5806F08D03B4AD2F8803023F48073F7
:10316000C2F8803000207047364AD2F8803023F40D
:103170008073C2F88030136823F4C06343F4007393
:103180001360314B1B68322202FB03F32F4AA2FB70
:1031900003239B0C013300E0013B2A4A526912F4DD
:1031A000806F01D0002BF7D1264B5B6913F4806F41
:1031B00044D100207047B0F5007F08D0214A136841
:1031C00023F4C06343F480631360002070471D4BF9
:1031D0001B6803F4C063B3F5806F08D0194AD2F8B6
:1031E000803043F48073C2F8803000207047154A65
:1031F000D2F8803043F48073C2F88030136823F42F
:10320000C06343F4007313600F4B1B68322202FB50
:1032100003F30E4AA2FB03239B0C013300E0013BA6
:10322000084A526912F4806F01D0002BF7D1054B88
:103230005B6913F4806F03D100207047032070474F
:1032400003207047007000400400002083DE1B4311
:10325000024A936843F480439360704700700040D3
:10326000124BDA6802F00302D868C0F30310431C63
:10327000032A11D00E48B0FBF3F00C4BDB68C3F30C
:10328000062303FB00F0094BDB68C3F34163013302
:103290005B00B0FBF3F070470648B0FBF3F0034B64
:1032A000DB68C3F3062303FB00F0ECE700100240E9
:1032B0000024F40000127A00002800F0548270B557
:1032C00082B00446036813F0010F37D0A44A936814
:1032D00003F00C03D26802F003020C2B23D0082B5E
:1032E00023D06368B3F5803F4ED0B3F5A02F51D003
:1032F0009B4B1A6822F480321A601A6822F48022EA
:103300001A606368002B52D0FEF776FE0546944B98
:103310001B6813F4003F11D1FEF76EFE401B6428BA
:10332000F5D9032028E2032AD9D18D4B1B6813F469
:10333000003F03D06368002B00F01782236813F06E
:10334000020F5DD0864A936803F00C03D26802F046
:1033500003020C2B3AD0042B3AD0E368002B75D033
:103360007F4A136843F480731360FEF745FE0546F9
:103370007B4B1B6813F4806F5FD1FEF73DFE401B53
:103380000228F5D90320F7E1754A136843F4803326
:103390001360B6E703F18043A3F53C331A6842F4A7
:1033A00080221A601A6842F480321A60A9E7FEF798
:1033B00023FE05466A4B1B6813F4003FBED0FEF7A0
:1033C0001BFE401B6428F5D90320D5E1022AC2D197
:1033D000634B1B6813F4806F03D0E368002B00F08D
:1033E000C6815F4A536823F0FE43216943EA0163C3
:1033F00053605C4B1868FEF7E9FC002840F0B98187
:10340000236813F0080F4CD063699BB3544AD2F879
:10341000943043F00103C2F89430FEF7EDFD054609
:103420004F4BD3F8943013F0020F3AD1FEF7E4FD7E
:10343000401B0228F4D903209EE1494A536823F037
:10344000FE43216943EA01635360D9E7444A1368A4
:1034500023F480731360FEF7CFFD0546404B1B68D5
:1034600013F4806FCCD0FEF7C7FD401B0228F5D9BE
:10347000032081E13A4AD2F8943023F00103C2F8E4
:103480009430FEF7B9FD0546354BD3F8943013F070
:10349000020F06D0FEF7B0FD401B0228F4D903202E
:1034A0006AE1236813F0040F00F081802C4B9B6DC0
:1034B00013F0805F36D12A4B9A6D42F080529A65A4
:1034C0009B6D03F080530193019B0125264B1B68E4
:1034D00013F4807F28D0A368012B39D0052B45D069
:1034E0001F4BD3F8902022F00102C3F89020D3F8AC
:1034F000902022F00402C3F89020A368002B43D050
:10350000FEF77AFD0646164BD3F8903013F0020F03
:103510004CD1FEF771FD801B41F288339842F2D9FD
:10352000032029E10025D1E70F4A136843F4807393
:103530001360FEF761FD06460B4B1B6813F4807F9A
:10354000C9D1FEF759FD801B0228F5D9032013E1EC
:10355000034AD2F8903043F00103C2F89030CCE730
:10356000001002400C000020007000408A4BD3F88D
:10357000902042F00402C3F89020D3F8902042F04B
:103580000102C3F89020B8E7FEF736FD0646824BED
:10359000D3F8903013F0020F08D0FEF72DFD801BFA
:1035A00041F288339842F2D90320E5E0E5B9236877
:1035B00013F0200F35D0A369E3B1774AD2F89830E1
:1035C00043F00103C2F89830FEF716FD0546724B32
:1035D000D3F8983013F0020F23D1FEF70DFD401BF6
:1035E0000228F4D90320C7E06B4A936D23F080537F
:1035F0009365DCE7684AD2F8983023F00103C2F8FB
:103600009830FEF7F9FC0546634BD3F8983013F079
:10361000020F06D0FEF7F0FC401B0228F4D903206D
:10362000AAE0E369002B00F0A6805B4A926802F0F2
:103630000C020C2A69D0022B1DD0574B1A6822F0BD
:1036400080721A60DA6822F00302DA60DA6822F027
:10365000887222F48032DA60FEF7CEFC04464E4BCC
:103660001B6813F0007F4ED0FEF7C6FC001B02283B
:10367000F5D9032080E0484A136823F08073136073
:10368000FEF7BAFC0546444B1B6813F0007F06D0DA
:10369000FEF7B2FC401B0228F5D903206CE03E4A3D
:1036A000D3683E491940236A606A013843EA00132F
:1036B000A06A43EA0023206B4008013843EA4053E4
:1036C000606B4008013843EA4063E06A43EAC06344
:1036D0000B43D360136843F080731360D36843F0E7
:1036E0008073D360FEF788FC04462B4B1B6813F0F5
:1036F000007F06D1FEF780FC001B0228F5D90320CD
:103700003AE0002038E0002036E0012B36D0224B92
:10371000DB6803F00301226A914231D103F0F00229
:10372000616A0139B2EB011F2CD103F4FE42A16A98
:10373000B2EB012F28D103F07842E16AB2EBC16FFE
:1037400024D103F4C001226B5208013AB1EB425F6D
:103750001ED103F0C063626B5208013AB3EB426FB3
:1037600018D1002008E001207047012004E001206A
:1037700002E0012000E0002002B070BD0120FBE764
:103780000120F9E70120F7E70120F5E70120F3E741
:103790000120F1E70120EFE7001002400C809F01BB
:1037A0001E4B9B6803F00C03042B33D01B4B9B6810
:1037B00003F00C03082B2FD0184B9B6803F00C036D
:1037C0000C2B01D000207047144BDA6802F0030282
:1037D000D868C0F30310431C032A11D01048B0FB73
:1037E000F3F00E4BDB68C3F3062303FB00F00B4B37
:1037F000DB68C3F3416301335B00B0FBF3F0704758
:103800000848B0FBF3F0054BDB68C3F3062303FB6A
:1038100000F0ECE702487047024870470010024091
:103820000024F40000127A00002800F0E680F8B5C9
:103830000C460546744B1B6803F00F038B420BD2FA
:10384000714A136823F00F030B431360136803F0EE
:103850000F038B4240F0D3802E6816F001065FD034
:103860006B68032B2FD0022B4DD0684B1B6813F4D1
:10387000806F00F0C680FFF793FF654B98424DD9EB
:10388000624A936823F0F00343F08003936080263C
:103890005E4A936823F0030369680B439360FEF765
:1038A000ABFB0746594B9B6803F00C036A68B3EB0C
:1038B000820F35D0FEF7A0FBC01B41F2883398423F
:1038C000F0D9032078E0514B1B6813F0007F01D141
:1038D000012071E0FFF7C4FC4D4B98421AD94B4BC5
:1038E0009B6813F0F00F05D02E6816F00206CFD0BB
:1038F000AB688BB9454A936823F0F00343F080032B
:1039000093608026C4E7414B1B6813F4003FB2D19B
:10391000012051E00026BBE70026B9E70026B7E703
:103920002B6813F0020F48D013F0040F04D0374A6D
:10393000936843F4E06393602B6813F0080F06D09C
:10394000324A936823F47C5343F4E06393602F4A34
:10395000936823F0F003A9680B4393602A4B1B681C
:1039600003F00F03A34230D82B6813F0040F06D0E6
:10397000264A936823F4E063E9680B4393602B685D
:1039800013F0080F07D0214A936823F46053296984
:1039900043EAC1039360FFF703FF1C4B9B68C3F32B
:1039A00003131C4AD35C03F01F03D8401A4B186062
:1039B0001A4B1868FEF70AFAF8BD802ECED1134ACA
:1039C000936823F0F0039360C8E70F4A136823F06D
:1039D0000F0323431360FEF70FFB06460A4B1B68D9
:1039E00003F00F03A342BFD0FEF706FB801B41F29A
:1039F00088339842F2D90320DEE701207047012086
:103A0000DAE70120D8E700BF0020024000100240A2
:103A100000B4C40428B50008040000200C000020F5
:103A2000014B1868704700BF0400002008B5FFF77D
:103A3000F7FF054B9B68C3F30223044AD35C03F0F2
:103A40001F03D84008BD00BF0010024038B5000871
:103A500008B5FFF7E5FF054B9B68C3F3C223044A93
:103A6000D35C03F01F03D84008BD00BF0010024024
:103A700038B500080F2303600B4B9A6802F003026D
:103A800042609A6802F0F00282609A6802F4E06292
:103A9000C2609B68DB0803F4E0630361034B1B68AF
:103AA00003F00F030B60704700100240002002403B
:103AB000F0B583B00446036813F4002F69D0AE4B11
:103AC0009B6D13F0805F1ED1AB4B9A6D42F080521C
:103AD0009A659B6D03F080530193019B0126A74AD1
:103AE000136843F480731360FEF786FA0546A34B10
:103AF0001B6813F4807F08D1FEF77EFA401B022872
:103B0000F5D9032502E00026E9E7002545BB9A4BDD
:103B1000D3F8903013F4407315D0226C9A4212D02F
:103B2000954AD2F8903023F44073D2F8901041F4C3
:103B30008031C2F89010D2F8901021F48031C2F890
:103B40009010C2F8903013F0010F10D145B98A4A95
:103B5000D2F8903023F44073216C0B43C2F89030BC
:103B6000C6B1854A936D23F08053936512E0FEF74A
:103B700043FA0746804BD3F8903013F0020FE5D19B
:103B8000FEF73AFAC01B41F288339842F2D9032576
:103B9000DCE70025236813F0010F08D0764AD2F83D
:103BA000883023F0030361680B43C2F88830236830
:103BB00013F0020F08D0704AD2F8883023F00C03BB
:103BC000A1680B43C2F88830236813F0040F08D0B3
:103BD000694AD2F8883023F03003E1680B43C2F819
:103BE0008830236813F0080F08D0634AD2F8883071
:103BF00023F0C00321690B43C2F88830236813F017
:103C0000200F08D05C4AD2F8883023F44063616901
:103C10000B43C2F88830236813F0400F08D0564A8F
:103C2000D2F8883023F44053A1690B43C2F888309E
:103C3000236813F0800F08D04F4AD2F8883023F45D
:103C40004043E1690B43C2F88830236813F4807F56
:103C500008D0494AD2F8883023F44033216A0B4314
:103C6000C2F88830236813F4007F08D0424AD2F8A3
:103C7000883023F44023616A0B43C2F888302368FC
:103C800013F4806F0CD03C4AD2F8883023F44013F0
:103C9000A16A0B43C2F88830A36AB3F5801F57D0DE
:103CA000236813F4006F0CD0334AD2F8883023F421
:103CB0004003E16A0B43C2F88830E36AB3F5800F32
:103CC0004BD0236813F4805F0CD02B4AD2F8883095
:103CD00023F04073216B0B43C2F88830236BB3F1A0
:103CE000807F3FD0236813F4005F0CD0224AD2F8C3
:103CF000883023F04063616B0B43C2F88830636BFC
:103D0000B3F1006F33D0236813F4804F0CD01A4AFC
:103D1000D2F8883023F04063A16B0B43C2F888309F
:103D2000A36BB3F1006F2BD0236813F4004F0CD0BA
:103D3000114AD2F8883023F04053E16B0B43C2F8AC
:103D40008830E36BB3F1805F1FD0284603B0F0BD2D
:103D5000D36843F48013D360A2E7D36843F480139D
:103D6000D360AEE7D36843F48013D360BAE7D36877
:103D700043F48013D360C6E7001002400070004097
:103D8000D36843F48013D360CEE7D36843F4803321
:103D9000D360DAE730B4036A23F001030362036AF5
:103DA0004568826922F4803222F073020C68224353
:103DB00023F002038C6823431D4CA0420FD004F56E
:103DC0000064A0420BD004F54064A04207D004F583
:103DD0008064A04203D004F58064A04205D123F0A2
:103DE0000803CC68234323F00403114CA0420FD0F6
:103DF00004F50064A0420BD004F54064A04207D053
:103E000004F58064A04203D004F58064A04207D189
:103E100025F4407C4C6944EA0C0C8D6945EA0C059C
:103E2000456082614A684263036230BC704700BFEC
:103E3000002C014030B4036A23F480730362036AE8
:103E40004468C26922F4803222F073020D682A436A
:103E500023F400738D6843EA0523184DA84203D06C
:103E600005F50065A84206D123F40063CD6843EA56
:103E7000052323F48063114DA8420FD005F500659A
:103E8000A8420BD005F54065A84207D005F580652E
:103E9000A84203D005F58065A84207D124F4405C10
:103EA0004C694CEA041C8C694CEA04144460C261FD
:103EB0004A68C263036230BC704700BF002C0140F7
:103EC00030B4036A23F480530362036A4468C2690E
:103ED00022F0807222F4E6420D6842EA052223F4C1
:103EE00000538D6843EA0533174DA84203D005F50A
:103EF0000065A84206D123F40043CD6843EA0533A8
:103F000023F48043104DA8420FD005F50065A84268
:103F10000BD005F54065A84207D005F58065A8429D
:103F200003D005F58065A84207D124F4404C4C69C4
:103F30004CEA841C8C694CEA84144460C2614A686F
:103F40000264036230BC7047002C014030B4036A45
:103F500023F480330362036A4468026D22F48032E2
:103F600022F070020D682A4323F400338D6843EA7F
:103F700005430F4DA8420FD005F50065A8420BD0B0
:103F800005F54065A84207D005F58065A84203D035
:103F900005F58065A84204D124F480344D6944EAD3
:103FA0000524446002654A688264036230BC70473D
:103FB000002C014030B4036A23F480130362036AC7
:103FC0004468026D22F0807222F4E0420D6842EAF9
:103FD000052223F400138D6843EA05530F4DA842D0
:103FE0000FD005F50065A8420BD005F54065A84245
:103FF00007D005F58065A84203D005F58065A84285
:1040000004D124F480244D6944EA85244460026587
:104010004A68C264036230BC704700BF002C014094
:1040200010B4036A046A24F001040462846924F071
:10403000F00C4CEA021223F00A030B438261036284
:104040005DF8044B704710B4046A24F01004046255
:104050008469036A24F4704C4CEA023223F0A00312
:1040600043EA0113826103625DF8044B7047836881
:1040700023F4401323F070030B4343F007038360E2
:104080007047000090F83D30DBB2012B32D10223A3
:1040900080F83D300268D36843F00103D3600368C1
:1040A000174A934218D0B3F1804F15D0A2F594323D
:1040B000934211D002F5806293420DD002F5963200
:1040C000934209D002F54062934205D01A6842F04B
:1040D00001021A600020704799680A4A0A40062ABD
:1040E0000AD0B2F5803F09D01A6842F001021A6086
:1040F0000020704701207047002070470020704763
:10410000002C0140070001000268D36823F001037E
:10411000D3600368196A41F21112114208D1196A79
:1041200044F24442114203D11A6822F001021A609B
:10413000012380F83D30002070477047704770477A
:104140007047704710B5044603681A6912F0020FF1
:1041500012D0DA6812F0020F0ED06FF002021A616C
:104160000123037703689B6913F0030F00F09F801E
:10417000FFF7E5FF0023237723681A6912F0040F85
:1041800013D0DA6812F0040F0FD06FF004021A6136
:104190000223237723689B6913F4407F00F08D800E
:1041A0002046FFF7CCFF0023237723681A6912F01B
:1041B000080F12D0DA6812F0080F0ED06FF0080264
:1041C0001A61042323772368DB6913F0030F7BD084
:1041D0002046FFF7B4FF0023237723681A6912F003
:1041E000100F12D0DA6812F0100F0ED06FF010021C
:1041F0001A61082323772368DB6913F4407F6AD0B0
:104200002046FFF79CFF0023237723681A6912F0EA
:10421000010F03D0DA6812F0010F63D123681A6925
:1042200012F0800F03D0DA6812F0800F61D123689A
:104230001A6912F4807F03D0DA6812F0800F5FD120
:1042400023681A6912F0400F03D0DA6812F0400FA9
:104250005DD123681A6912F0200F03D0DA6812F0DA
:10426000200F5BD123681A6912F4801F03D0DA682B
:1042700012F4801F59D123681A6912F4001F03D069
:10428000DA6812F4001F57D123681A6912F4800FFC
:1042900003D0DA6812F4800F55D123681A6912F43A
:1042A000000F03D0DA6812F4000F53D110BDFFF7EE
:1042B00045FF2046FFF744FF5CE72046FFF73EFF3F
:1042C0002046FFF73DFF6EE72046FFF737FF204609
:1042D000FFF736FF7FE72046FFF730FF2046FFF766
:1042E0002FFF90E76FF001021A612046FDF724F9D5
:1042F00094E76FF080021A61204600F0C0FB96E759
:104300006FF480721A61204600F0BAFB98E76FF0F4
:1043100040021A612046FFF714FF9AE76FF020026F
:104320001A61204600F0AAFB9CE76FF480121A6124
:10433000204600F0A6FB9EE76FF400121A612046AB
:1043400000F0A0FBA0E76FF480021A61204600F0A5
:104350009AFBA2E76FF400021A61204600F094FB7A
:10436000A4E7000003682C4A90420ED0B0F1804FC1
:104370000BD0A2F59432904207D002F580629042B1
:1043800003D002F59632904203D123F070034A68BD
:104390001343214A90421AD0B0F1804F17D0A2F5B2
:1043A0009432904213D002F5806290420FD002F511
:1043B000963290420BD002F54062904207D002F54F
:1043C0008062904203D002F58062904203D123F4D0
:1043D0004073CA68134323F080034A6913430360A0
:1043E0008B68C3620B6883620B4B98420FD003F556
:1043F000006398420BD003F54063984207D003F561
:104400008063984203D003F58063984201D10B6921
:104410000363012343617047002C014060B310B572
:10442000044690F83D3013B3022384F83D30214612
:1044300051F8040BFFF796FF012384F8483084F805
:104440003E3084F83F3084F8403084F8413084F8BE
:10445000423084F8433084F8443084F8453084F89E
:10446000463084F8473084F83D30002010BD80F895
:104470003C30FDF7FFFBD7E70120704760B310B574
:10448000044690F83D3013B3022384F83D302146B2
:1044900051F8040BFFF766FF012384F8483084F8D5
:1044A0003E3084F83F3084F8403084F8413084F85E
:1044B000423084F8433084F8443084F8453084F83E
:1044C000463084F8473084F83D30002010BD80F835
:1044D0003C30FFF732FED7E70120704730B4036A63
:1044E00023F010030362036A4468826922F0807239
:1044F00022F4E6420D6842EA052223F020038D688B
:1045000043EA0513174DA84203D005F50065A842FC
:1045100006D123F08003CD6843EA051323F040035E
:10452000104DA8420FD005F50065A8420BD005F547
:104530004065A84207D005F58065A84203D005F57F
:104540008065A84207D124F4406C4C694CEA840C85
:104550008C694CEA8404446082614A688263036225
:1045600030BC7047002C014038B590F83C30012B2E
:1045700000F08C8004460D46012380F83C30142A5C
:104580001ED8DFE802F00B1D1D1D211D1D1D351D50
:104590001D1D481D1D1D5C1D1D1D6F000068FFF7C2
:1045A000F9FB2268936943F00803936122689369D9
:1045B00023F0040393612268936929690B43936193
:1045C000002084F83C0038BD0068FFF787FF2268B0
:1045D000936943F4006393612268936923F48063D1
:1045E000936122689369296943EA01239361E7E7AC
:1045F0000068FFF71FFC2268D36943F00803D3610A
:104600002268D36923F00403D3612268D36929693E
:104610000B43D361D4E70068FFF752FC2268D369EB
:1046200043F40063D3612268D36923F48063D361C8
:104630002268D369296943EA0123D361C0E700688E
:10464000FFF784FC2268136D43F0080313652268AA
:10465000136D23F0040313652268136D29690B435E
:104660001365ADE70068FFF7A5FC2268136D43F4FE
:10467000006313652268136D23F480631365226859
:10468000136D296943EA0123136599E702209AE72C
:1046900010B4846824F47F4C42EA03220A4342EABD
:1046A0000C0282605DF8044B7047000090F83C30CB
:1046B000012B77D010B50446012380F83C3002234B
:1046C00080F83D3002689068374B034093600B6878
:1046D000602B53D00ED9B3F5005F43D02DD9334AA8
:1046E000934225D037D9324A934221D03032934277
:1046F0001ED013E0402B4BD00BD9502B0ED1CA68E3
:1047000049682068FFF78CFC50212068FFF7AFFC58
:1047100004E0202B0CD008D9302B09D0012384F8D9
:104720003D30002084F83C0010BD0BB1102BF5D1BA
:1047300019462068FFF79BFCF0E7702BEED1CB68A1
:104740004A6889682068FFF7A3FF2268936843F0EE
:1047500077039360E2E7B3F1101FE9D0103A934278
:10476000E6D0DBE7CB684A6889682068FFF790FFEE
:104770002268936843F480439360CFE7CA6849682E
:104780002068FFF760FC60212068FFF770FCC5E738
:10479000CA6849682068FFF743FC40212068FFF79A
:1047A00066FCBBE7022070478800CEFF3000100097
:1047B0004000100001F01F01012303FA01FC036A0D
:1047C00023EA0C030362036A02FA01F10B4303625A
:1047D0007047000010B504460846002947D194F8F8
:1047E0003E30DBB2013B18BF0123002B40F0948028
:1047F000002867D1022384F83E3001220146206858
:10480000FFF7D8FF2368474A93420FD002F50062B2
:1048100093420BD002F54062934207D002F58062CA
:10482000934203D002F58062934203D15A6C42F462
:1048300000425A6423683B4A93425FD0B3F1804FF1
:104840005CD0A2F59432934258D002F58062934234
:1048500054D002F59632934250D002F54062934212
:104860004CD01A6842F001021A60002055E0042979
:104870000CD0082911D00C2916D010291BD094F87F
:104880004330DBB2013B18BF0123AEE794F83F3061
:10489000DBB2013B18BF0123A7E794F84030DBB23D
:1048A000013B18BF0123A0E794F84130DBB2013B84
:1048B00018BF012399E794F84230DBB2013B18BFDF
:1048C000012392E7042809D008280BD00C280DD02A
:1048D00010280FD0022384F843308EE7022384F897
:1048E0003F308AE7022384F8403086E7022384F8C9
:1048F000413082E7022384F842307EE799680A4A11
:104900000A40062A0AD0B2F5803F09D01A6842F060
:1049100001021A60002000E0012010BD0020FCE729
:104920000020FAE7002C01400700010090F83C301D
:10493000012B40D030B4012380F83C30022380F8B2
:104940003D300268536894681C4DAA4203D005F5B7
:104950000065AA4203D123F470034D682B4323F072
:10496000007323F070030D682B4353600368134AF0
:10497000934212D0B3F1804F0FD0A2F594329342FC
:104980000BD002F58062934207D002F59632934233
:1049900003D002F54062934204D124F080048A6877
:1049A00014439C60012380F83D30002380F83C30A4
:1049B000184630BC70470220704700BF002C0140F1
:1049C00090F83C30012B55D010B4012380F83C30D6
:1049D000CB6823F440738A68134323F480634A68E6
:1049E000134323F400630A68134323F480530A69D2
:1049F000134323F400534A69134323F480430A6B9F
:104A0000134323F470238A6943EA024302681A4C71
:104A1000A24203D004F50064A24203D123F08053E4
:104A2000CC692343144CA2420BD004F50064A2428B
:104A300007D05364002380F83C3018465DF8044BDF
:104A4000704723F470038C6A43EA045323F08073A5
:104A50000C6A234323F000734C6A2343064CA242A2
:104A600003D004F50064A242E3D123F00053C96AE5
:104A70000B43DEE702207047002C0140704770476F
:104A800070477047704770477047000070B5044624
:104A9000016883680269134342691343C26913437F
:104AA00008688B4A024013430B602268536823F462
:104AB0004053E1680B435360A1692268854B9A42D9
:104AC00001D0236A1943936823F06E4323F43063C3
:104AD0000B4393602268D36A23F00F03616A0B4390
:104AE000D36223687C4A934223D07C4A934234D0D9
:104AF0007B4A93424AD07B4A934259D0754A9342AB
:104B000068D0102273498B4200F09580E069B0F5BF
:104B1000004F00F0D280082A00F24F81DFE812F047
:104B20001201340110014D0137014D014D014D01BC
:104B30003A0102F55842D2F8882002F00302032A13
:104B400009D8DFE802F002045C060122DAE7042259
:104B5000D8E70822D6E71022D4E702F5E632D2F8E9
:104B6000882002F00C020C2A0ED8DFE802F0070DB4
:104B70000D0D090D0D0D4A0D0D0D0B000022C1E7A5
:104B80000422BFE70822BDE71022BBE702F5E432AA
:104B9000D2F8882002F03002202A34D004D8A2B300
:104BA000102A34D10422ADE7302A32D10822A9E7F5
:104BB00002F5E232D2F8882002F0C002802A2AD020
:104BC00004D852B3402A2AD104229BE7C02A28D114
:104BD000082297E702F5C832D2F8882002F4406232
:104BE000B2F5006F1FD005D8FAB1B2F5806F1ED1B3
:104BF000042287E7B2F5406F1BD1082282E7022228
:104C000080E702227EE702227CE700227AE7102278
:104C100078E7102276E7022274E7002272E710227A
:104C200070E710226EE702226CE700226AE710228A
:104C300068E7102266E7082A00F2AF80DFE802F09A
:104C400008AD3BAD38ADADAD05004FF4004004E01C
:104C5000FEF7ECFE002800F0A280626A224B33F8D7
:104C60001220B0FBF2F3656805EB4501994200F2B2
:104C70009880B3EB053F00F296800026334631461C
:104C8000FBF7FCFE090241EA106100026B08C01844
:104C90002A46334641F10001FBF7F0FEA0F54072D1
:104CA000124B9A4200F281802368D860304662E05D
:104CB000FEF776FDCEE70E48CFE7082A77D8DFE883
:104CC00002F0193905763C7676761D00084815E025
:104CD000F369FFCF008000400038014000440040ED
:104CE00000480040004C004040B50008FFFC0F00A9
:104CF0000024F400FEF79AFE00285AD0626A324B74
:104D000033F81230B0FBF3F06268530803EB400055
:104D1000B0FBF2F080B2A0F110024FF6EF739A42AE
:104D200049D820F00F03C0F3420018432368D8602D
:104D3000002020E0FEF78CFEDEE7FEF731FDDBE72A
:104D4000224803E0FEF772FE002838D0626A1E4B4C
:104D500033F81230B0FBF3F0636800EB5300B0FBA4
:104D6000F3F080B2A0F110024FF6EF739A4228D808
:104D70002368D86000200123A4F86A30A4F86830C2
:104D800000232367636770BDFEF762FEDCE7FEF772
:104D900007FDD9E74FF40040D8E70120EBE70020FA
:104DA000E9E70120E7E70120E5E70120E3E701204B
:104DB000E1E70020DFE70120DDE70120DBE700205D
:104DC000D9E70120D7E700BF40B500080024F40070
:104DD000836A13F0010F06D00268536823F400338E
:104DE000C16A0B435360836A13F0020F06D0026856
:104DF000536823F48033016B0B435360836A13F0D1
:104E0000040F06D00268536823F48023416B0B43E0
:104E10005360836A13F0080F06D00268536823F4C6
:104E20000043816B0B435360836A13F0100F06D06D
:104E30000268936823F48053C16B0B439360836AC9
:104E400013F0200F06D00268936823F40053016C1E
:104E50000B439360836A13F0400F0AD002685368D3
:104E600023F48013416C0B435360436CB3F5801FF4
:104E70000BD0836A13F0800F06D00268536823F4C6
:104E80000023C16C0B43536070470268536823F4DE
:104E9000C003816C0B435360EBE72DE9F8430546F3
:104EA0000F4616469946DDF820802C68E46937EAFB
:104EB00004030CBF4FF0010C4FF0000CB44541D17E
:104EC000B8F1FF3FF1D0FDF797F8A0EB090040459E
:104ED00024D8B8F1000F21D02B681A6812F0040F03
:104EE000E3D0DA6912F4006FDFD04FF400621A6287
:104EF0002A68136823F4D07313602A68936823F038
:104F0000010393602023C5F88430C5F88830C5F8C4
:104F10008C30002385F88030032014E02A68136861
:104F200023F4D07313602A68936823F0010393601D
:104F30002023C5F88430C5F88830002385F88030F8
:104F4000032000E00020BDE8F8832DE9F04182B0A5
:104F50001E46D0F88430202B58D104460D4690468A
:104F6000002957D0002A57D090F88030012B55D017
:104F7000012380F880300023C0F88C302123C0F852
:104F80008430FDF739F80746A4F85480A4F8568019
:104F9000A368B3F5805F05D04FF00008002384F8C4
:104FA000803014E0236913B14FF00008F6E7A846FB
:104FB0000025F3E738F8023B2268C3F30803936245
:104FC000B4F8562092B2013A92B2A4F85620B4F83E
:104FD00056309BB273B100963B460022802120469A
:104FE000FFF75BFFE0B9002DE4D015F8012B236833
:104FF0009A62E5E700963B46002240212046FFF7F3
:105000004CFF78B92023C4F8843000E0022002B0BD
:10501000BDE8F0810120FAE70120F8E70220F6E779
:105020000320F4E70320F2E730B583B00446002301
:10503000C0F88C30FCF7E0FF05462268126812F0D9
:10504000080F0FD123681B6813F0040F18D1202319
:10505000C4F88430C4F888300020E06684F880000A
:1050600003B030BD6FF07E430093034600224FF43F
:1050700000112046FFF711FF0028E3D00320EFE7DF
:105080006FF07E4300932B4600224FF480012046B0
:10509000FFF703FF0028DAD00320E1E778B310B56B
:1050A0000446D0F884300BB32423C4F8843022683B
:1050B000136823F0010313602046FFF7E7FC012883
:1050C00013D0A36ABBB92268536823F4904353609A
:1050D0002268936823F02A0393602268136843F0E0
:1050E000010313602046FFF79FFF10BD80F880305A
:1050F000FCF73AFED8E72046FFF76AFEE3E7012017
:1051000070470000436E2BB90123A0F86A30A0F865
:105110006830704730B403689A68C2F34262996895
:10512000490F094D6B5CDB00084C615C93FBF1F3AC
:10513000A0F86A30AB5CDB00A25C93FBF2F3A0F852
:10514000683030BC704700BF60B5000858B5000833
:1051500090F88030012B18D0012380F88030242370
:10516000C0F8843003681A68196821F001011960D9
:1051700022F000520023436601680A602022C0F832
:10518000842080F88030184670470220704738B578
:1051900090F88030012B1DD00446012380F8803028
:1051A0002423C0F8843003681D681A6822F00102C5
:1051B0001A600268936823F0604319439160FFF717
:1051C000A1FF23681D602023C4F88430002084F8E8
:1051D000800038BD0220FCE738B590F88030012B04
:1051E0001DD00446012380F880302423C0F8843089
:1051F00003681D681A6822F001021A600268936849
:1052000023F0606319439160FFF77CFF23681D6002
:105210002023C4F88430002084F8800038BD0220A8
:10522000FCE70000014B1868704700BF1000002029
:1052300070B50D4E0D4D761BB61006D0002455F8F6
:10524000043B01349847A642F9D1094E094D761B1B
:1052500006F05AF9B61006D0002455F8043B013484
:105260009847A642F9D170BD70B9000870B900081E
:1052700078B9000870B90008830730B548D0541ECB
:10528000002A3FD0CAB2034601E0013C3AD303F8FA
:10529000012B9D07F9D1032C2DD9CDB245EA052567
:1052A0000F2C45EA054536D9A4F1100222F00F0C67
:1052B00003F1200EE6444FEA121C03F1100242E90A
:1052C000045542E9025510327245F8D10CF1010241
:1052D00014F00C0F03EB021204F00F0C13D0ACF11E
:1052E000040323F003030433134442F8045B9342A2
:1052F000FBD10CF003042CB1CAB21C4403F8012BFF
:105300009C42FBD130BD64461346002CF4D1F9E732
:1053100003461446BFE71A46A446E0E70FB400B5BB
:10532000074983B004AB086853F8042B81680193E4
:1053300000F0EAF803B05DF804EB04B0704700BF7A
:105340001000002000294FF480630CBF02220022CD
:1053500000F000B82DE9F043694CD4F8008083B028
:1053600004460E4617461D46B8F1000F03D0D8F884
:105370003830002B77D0022F05D0012F00F2AC80FF
:10538000002DC0F2A980636EDA0752D5214640464F
:1053900003F008F8216B41B104F14003994202D0B7
:1053A000404603F02BF900232363B4F90CC000231B
:1053B0001CF0800FA361636064D12CF44A6C2CF064
:1053C000030C022FA4F80CC06AD001AB6A46214638
:1053D000404603F0B9FAA3891843A081002D2FD0CD
:1053E000002E2ED0D8F83830002B38D0009B266005
:1053F000AB42B4F90C301CBF43F40063A381012F0E
:1054000004BF43F00103A3819AB213F00803C4E977
:1054100004652CD0D1075DD56D42A561656E002372
:1054200015F00105A36027D00025284603B0BDE88C
:10543000F083A3899B05A9D4A06D03F011FAA5E719
:10544000009D284603F0B0FA0646002847D0A389FD
:1054500043F08003A381D8F83830002BC6D14046F2
:1054600002F0D4FFC2E7404602F0D0FF83E7A3601A
:10547000656E15F00105D7D1930524D5284603B0F4
:10548000BDE8F0832169404603F0B8F8B4F90CC0D8
:105490002CF44A6C2CF0030C022FA4F80CC094D10D
:1054A0000025002204F14303A2600122C4E9043272
:1054B0002360636E4CF0020CD807A4F80CC0DDD456
:1054C0001CF4007FDAD1A06D03F0CCF9284603B0BC
:1054D000BDE8F083A560CBE74FF0FF35CEE7DDF800
:1054E0000090A94504D0484603F05EFA064620B96C
:1054F000B4F90CC04FF0FF35D3E74D46A7E700BF26
:1055000010000020000000002DE9F04F2DED0A8B67
:10551000CFB01C460AEE101A91460AEE900A0546D4
:1055200003F096F90368139318460994FBF728FDD6
:1055300012901DB1AB6B002B00F048821AEE102ABE
:10554000536EDB0740F14781B2F90C309AB29604F2
:1055500009D41AEE101A43F400538B819AB24B6EA1
:1055600023F400534B66150740F1CC801AEE103A35
:105570001B69002B00F0C68002F01A030A2B00F012
:10558000D2804D469FED9C7B2B78002425AACDE947
:105590002344CDE91544CDE917448DED107B1AEE77
:1055A000909A0E942292904614940694002B00F048
:1055B000B081AB4604E01BF8013F002B00F0CD802A
:1055C000252BF8D1BBEB050640F0CB809BF80030D3
:1055D000002B00F09E8100234FF0FF329BF80170FA
:1055E0008DF86B3005930BF1010B04929A462B2436
:1055F00020210BF1010BA7F120035A2B00F20081AF
:10560000DFE813F00A03FE00FE000503FE00FE00C3
:10561000FE006A00FE00FE0076029E02FE0081028D
:10562000A802FE00A3025B005B005B005B005B0066
:105630005B005B005B005B00FE00FE00FE00FE0006
:10564000FE00FE00FE008E01FE001602ED018E013E
:105650008E018E01FE00FE00FE00FE000003FE0033
:10566000FE004502FE00FE00FE002002FE00C20217
:10567000FE00FE009907FE00FE00FE00FE00FE0098
:10568000FE00FE00FE008E01FE001602EF018E01FC
:105690008E018E01E602EF01E801FE00F302FE003A
:1056A00086024702D402E801FE0020027D00750751
:1056B000FE00FE007907FE007D00A7F13003002206
:1056C0001BF8017B02EB820203EB4202A7F13003DD
:1056D000092BF5D905928EE7484603F0B9F84368DF
:1056E00017931846FBF74CFC18900646484603F003
:1056F000AFF8836815932021002E40F0E9869BF8CF
:10570000007076E71AEE101A1AEE900A1AEE105A86
:1057100001F002FD002841F02783AA8902F01A0354
:105720000A2B7FF42EAF1AEE101AB1F90E30002BAF
:10573000FFF627AF4B6ED90702D4920541F15A818B
:105740001AEE101A1AEE900A23464A464FB0BDECE4
:105750000A8BBDE8F04F01F09FBCBBEB050600F0E3
:10576000D880249B33442493239B0133072BC8E91F
:105770000056239305DC08F10808069B3344069382
:1057800024E71AEE101A22AA484604F085F890B9C8
:105790000DF19408F1E71AEE101A22AA484604F017
:1057A0007BF8002800F0A680089B23B11AEE900A2F
:1057B000194602F023FF1AEE102A536ED80740F163
:1057C000FA8093895A0601F1D88206984FB0BDEC51
:1057D0000A8BBDE8F08FB2F90C309F059AB23FF505
:1057E000B6AE1AEE105AA86D03F03AF8B5F90C30BF
:1057F0009AB2ACE6AFF300800000000000000000A9
:10580000002F00F0868000238DF8D4708DF86B3067
:105810000122CDE90723039204930C930F930D9378
:1058200035AD1AF002020A9202D0039A02320392B4
:105830001AF084020B9205D1059A0399561A002E8C
:1058400000F36883249C8BB1239B0DF16B02013321
:105850000134C8F80020072B4FF001022494239351
:10586000C8F8042000F39F8308F108080A9B83B15D
:10587000239B1BAA01330234C8F80020072B4FF0EA
:10588000020224942393C8F8042000F3998308F1BA
:1058900008080B9B802B00F06A82049B079A9E1AD3
:1058A000002E00F3AB821AF4807F40F00682079B43
:1058B000C8F804301C44239BC8F800500133072B60
:1058C0002494239300F3198308F108081AF0040FB5
:1058D00005D0059B039A9D1A002D00F38583DDE911
:1058E000052303998A42ACBF9B185B180693002CD2
:1058F0007FF451AF00232393089B1BB108994846BE
:1059000002F07CFE0DF194085D462B78002B7FF4AD
:1059100050AE249B002B41F01B82002323934AE7C7
:10592000099B073323F00703B3EC027B8DED107B5B
:10593000DDE91012099322F000430BEE101A0BEE72
:10594000903A4FF0FF32B0EE4B9AF0EE6B9AB74BB5
:1059500051EC190BFBF70AFC002840F0E884B34B2C
:1059600051EC190B4FF0FF32FBF7E2FB002840F03F
:10597000DE84DDE9100100220023FBF7CFFB0028C5
:1059800040F067879DF86B30A94DAA4A2AF0800A3B
:105990000321472FC8BF15460022089203910791A3
:1059A00004920C920F920D92002B3FF43AAF039A9F
:1059B0000132039235E7938999053FF503AF1AEE5B
:1059C000104A906D02F04EFFA389FBE6284602F0D4
:1059D0001DFDB3E59BF800704AF0200A09E64AF085
:1059E000100A1AF0200F099B00F04084073323F0BF
:1059F00007031A465B6852F8084B09921E46002BB3
:105A0000C0F24384049B013300F0BC822AF080037F
:105A1000039354EA060340F0B782049B002B40F046
:105A2000B882DDF80CA00023049307934EAD1FE16C
:105A3000099A002352F8041B8DF86B308DF8D410AE
:105A40000992E5E6099C54F8045B00268DF86B602A
:105A5000002D00F08F85049B5A1C00F051861A46D9
:105A600031462846FBF78CF90890002801F02F8179
:105A7000089B0496591B079121EAE1719DF86B3050
:105A80000994039108960C960F960D968CE74AF0B0
:105A9000100A1AF0200600F0C983099B073323F08F
:105AA00007035E6853F8084B09932AF48063039355
:105AB000002300228DF86B20049A551C00F0C08052
:105AC000039921F0800A54EA060140F0B780002AC9
:105AD00040F00786002BA6D1039B13F00103079328
:105AE00000F0148430238DF837310DF23715BFE004
:105AF000099B53F8042B0592002A80F2D583059A5E
